S010000066696E616C70726F2E73726563B9
S11300000C942A000C9447000C9447000C9447006D
S11300100C9447000C9447000C9447000C94470040
S11300200C9447000C9447000C9447000C94470030
S11300300C9447000C9447000C9447000C94470020
S11300400C9447000C9447000C9447000C94470010
S11300500C94470011241FBECFE5D8E0DEBFCDBF0E
S113006011E0A0E6B0E0ECEEF2E002C005900D92E3
S1130070AE30B107D9F721E0AEE0B1E001C01D9286
S1130080AE30B207E1F70E9449000C9474010C945D
S113009000000E94060160E875E280E090E00E94A2
S11300A0150180E690E00E9443018AE690E00E94F8
S11300B04301E12CF12C00E010E0D0E0DD24D394E6
S11300C00E943F01C82F811104C08CE00E943B01B3
S11300D090C0823361F118F4813341F08AC08333D4
S11300E009F446C0843309F464C083C08CE00E94E0
S11300F03B0111110EC086E890E00E94430183E9A0
S113010090E00E9443018AE690E00E9443011D2D85
S113011070C086E890E00E94430182EA90E00E9469
S113012043018AE690E00E9443011D2F62C08CE0E7
S11301300E943B0101110EC086E890E00E94430139
S113014081EB90E00E9443018AE690E00E94430123
S11301500D2D4FC086E890E00E94430180EC90E0B2
S11301600E9443018AE690E00E9443010D2F41C0A2
S11301708CE00E943B01F1100EC086E890E00E94E2
S1130180430180ED90E00E9443018AE690E00E94E2
S11301904301FD2C2EC086E890E00E9443018FEDC0
S11301A090E00E9443018AE690E00E944301FD2E04
S11301B020C08CE00E943B01E1100EC086E890E074
S11301C00E9443018FEE90E00E9443018AE690E092
S11301D00E944301ED2C0DC086E890E00E9443018B
S11301E08DEF90E00E9443018AE690E00E94430173
S11301F0ED2E2FEF81EE94E0215080409040E1F706
S113020000C000008C2F0E940F015ACF6C9A699A8B
S1130210689ABD9ABF9ABC9AC49A6E9A0895C49873
S11302208FB9779BFECFC49A0895DC01CB01880F68
S1130230991FAA1FBB1F880F991FAA1FBB1F9C01D0
S1130240AD01220F331F441F551F220F331F441FBC
S1130250551F60E074E284EF90E00E945201215047
S1130260310929B930BD86E880BD80E88AB98AB1F0
S113027088618AB908955D9BFECF8CB908955F9B10
S1130280FECF8CB10895CF93DF93EC01888188234E
S113029031F021960E943B0189918111FBCFDF91BE
S11302A0CF910895A1E21A2EAA1BBB1BFD010DC01C
S11302B0AA1FBB1FEE1FFF1FA217B307E407F50712
S11302C020F0A21BB30BE40BF50B661F771F881FEE
S11302D0991F1A9469F760957095809590959B0184
S10F02E0AC01BD01CF010895F894FFCFDC
S11302EC68656C6C6F203A290D0063686F6F7365D9
S11302FC206C616D702031202C2032202C20332076
S113030C6F7220343A006C61737420616374696F8A
S113031C6E3A006C616D702031206973206F6E2011
S113032C0D006C616D702031206973206F66660D51
S113033C006C616D702032206973206F6E200D008B
S113034C6C616D702032206973206F6666200D001D
S113035C6C616D702033206973206F6E200D006CFE
S113036C616D702033206973206F6666200D006CFC
S113037C616D702034206973206F6E0D006C616D9B
S111038C702034206973206F6666200D000017
S9030000FC
