:100000000C942A000C9447000C9447000C94470071
:100010000C9447000C9447000C9447000C94470044
:100020000C9447000C9447000C9447000C94470034
:100030000C9447000C9447000C9447000C94470024
:100040000C9447000C9447000C9447000C94470014
:100050000C94470011241FBECFE5D8E0DEBFCDBF12
:1000600011E0A0E6B0E0EAEFF6E002C005900D92E4
:10007000A434B107D9F721E0A4E4B1E001C01D9296
:10008000A434B207E1F70E94FF010C947B030C94A7
:100090000000813001F130F08230B1F1833009F499
:1000A0004CC00895413059F42AB381E090E002C079
:1000B000880F991F6A95E2F7822B8ABB08952AB3AD
:1000C00081E090E002C0880F991F6A95E2F7809561
:1000D00082238ABB0895413059F427B381E090E030
:1000E00002C0880F991F6A95E2F7822B87BB08959B
:1000F00027B381E090E002C0880F991F6A95E2F76C
:100100008095822387BB0895413059F424B381E060
:1001100090E002C0880F991F6A95E2F7822B84BB9A
:10012000089524B381E090E002C0880F991F6A957A
:10013000E2F78095822384BB0895413059F421B3BE
:1001400081E090E002C0880F991F6A95E2F7822B48
:1001500081BB089521B381E090E002C0880F991F10
:100160006A95E2F78095822381BB0895813001F181
:1001700030F08230B1F1833009F44CC00895413041
:1001800059F42BB381E090E002C0880F991F6A9563
:10019000E2F7822B8BBB08952BB381E090E002C085
:1001A000880F991F6A95E2F7809582238BBB08958B
:1001B000413059F428B381E090E002C0880F991FC4
:1001C0006A95E2F7822B88BB089528B381E090E01E
:1001D00002C0880F991F6A95E2F78095822388BB39
:1001E0000895413059F425B381E090E002C0880FB2
:1001F000991F6A95E2F7822B85BB089525B381E0AC
:1002000090E002C0880F991F6A95E2F780958223DB
:1002100085BB0895413059F422B381E090E002C0DB
:10022000880F991F6A95E2F7822B82BB089522B34B
:1002300081E090E002C0880F991F6A95E2F78095EF
:10024000822382BB0895789440E062E083E00E94BC
:10025000490041E062E083E00E94B6008BB7806411
:100260008BBF08958FE084BB85B38FEF85BB089566
:1002700080E090E0AFEFE1E0F0E0A5BB35B3BC017A
:10028000AF01082E02C0440F551F0A94E2F7242F35
:100290002095232325BB9C9B0FC09D9B07C09E9B45
:1002A00008C09F9916C083E090E008C081E090E00C
:1002B00005C082E090E002C080E090E0660F771F0A
:1002C000660F771F605A7F4FFB01E80FF91F80818F
:1002D000089501968430910581F68FEF0895C39AB1
:1002E0008FE19EE40197F1F700C00000C3988FE111
:1002F0009EE40197F1F700C000000895CF93C82F46
:100300008BB38F708BBB8BB39C2F907F892B8BBB58
:10031000C1980E946F018BB38F708BBB2BB330E100
:10032000C39FC0011124822B8BBBC1980E946F0117
:10033000CF910895CF93C82F8BB38F708BBB8BB3A6
:100340009C2F907F892B8BBBC19A0E946F018BB32E
:100350008F708BBB2BB330E1C39FC0011124822B64
:100360008BBBC19A0E946F01CF91089587B38E60B5
:1003700087BB8AB3806F8ABBC29883E30E947E01E9
:1003800082E30E947E0188E20E947E0181E00E9459
:100390007E018FE00E947E012FEF89EF90E02150D7
:1003A00080409040E1F700C000000895811103C033
:1003B00080E8860F02C080EC860F0E947E010895BF
:1003C0000F931F93CF93DF93FC01808181110AC0AB
:1003D00011C08991882371F00E949A010C171D07A2
:1003E000C1F708C08F010E949A01E8012196005FC1
:1003F0001F4FEFCFDF91CF911F910F910895CF93B2
:10040000DF93CDB7DEB760970FB6F894DEBF0FBEAF
:10041000CDBF0E9474030E9432010E94B6010E9467
:10042000230160E080E00E94D60180E790E00E9416
:10043000E0012FEF83ED90E3215080409040E1F701
:1004400000C0000081E00E947E018EE790E00E94E3
:10045000E00160E081E00E94D60141E061E083E0DC
:100460000E944900919841E064E083E00E944900C5
:1004700041E065E083E00E94490041E066E083E0FE
:100480000E94490041E067E083E00E944900F12CAE
:1004900000E0E12C6894BB24B5F86894CC24C6F83D
:1004A0006894DD24D4F885C00E943801182F2FEFFE
:1004B00081EE94E0215080409040E1F700C00000C0
:1004C0001F3F09F476C0133779F00F5F053061F0F4
:1004D0008AE20E949A01E1E0F0E0EC0FFD1FEE0DD0
:1004E000F11D1083E39465C089818133C9F58A8148
:1004F0008233B1F58B81833399F58C81843381F517
:1005000081E00E947E0160E080E00E94D6018EE8DA
:1005100090E00E94E00165E081E00E94D6018BE955
:1005200090E00E94E0012FEF83ED90E321508040A6
:100530009040E1F700C0000081E00E947E018EE95A
:1005400090E00E94E00160E081E00E94D601CE01CF
:1005500001960E94E001FF24F39400E0E12C29C001
:1005600081E00E947E0160E080E00E94D6018BEA7B
:1005700090E00E94E00160E081E00E94D601CE019F
:1005800001960E94E0012FEF83ED90E3215080401F
:100590009040E1F700C0000081E00E947E018EE7FC
:1005A00090E00E94E00160E081E00E94D60100E05E
:1005B000E12CFF2009F478CF919A0E9477038233CF
:1005C00069F118F4813341F0F4CF833309F448C062
:1005D000843309F467C0EDCF82B38D2582BB81E0FF
:1005E0000E947E01949B0DC08AEB90E00E94E00186
:1005F00060E081E00E94D60187EC90E00E94E0017B
:10060000D8CF8AEB90E00E94E00160E081E00E9498
:10061000D60186ED90E00E94E001CBCF82B38B251E
:1006200082BB81E00E947E01959B0DC08AEB90E029
:100630000E94E00160E081E00E94D60186EE90E039
:100640000E94E001B6CF8AEB90E00E94E00160E0FA
:1006500081E00E94D60185EF90E00E94E001A9CFE1
:1006600082B38C2582BB81E00E947E01969B0DC0E7
:100670008AEB90E00E94E00160E081E00E94D601F8
:1006800085E091E00E94E00194CF8AEB90E00E9427
:10069000E00160E081E00E94D60184E191E00E94E7
:1006A000E00187CF82B3805882BB81E00E947E0147
:1006B000979B0DC08AEB90E00E94E00160E081E032
:1006C0000E94D60184E291E00E94E00172CF8AEBA1
:1006D00090E00E94E00160E081E00E94D60183E3A7
:1006E00091E00E94E00165CF6E9ABE9A0895779BD3
:0A06F000FECF8FB10895F894FFCFFC
:1006FA003132332F3435362A3738392D73303D2B82
:10070A00534D41525420484F4D4520763100656E75
:10071A007465722070617373776F72643A007061E6
:10072A00737320636F7272656374003A2900737978
:10073A007374656D206973206F6E00706173732026
:10074A00696E636F7272656374006C6173742061A1
:10075A006374696F6E3A006C616D70203120697341
:10076A00206F6E200D006C616D702031206973203E
:10077A006F6666200D006C616D70203220697320EF
:10078A006F6E200D006C616D702032206973206FCE
:10079A006666200D006C616D702033206973206FCE
:1007AA006E200D006C616D702033206973206F66B6
:1007BA0066200D006C616D702034206973206F6EA5
:1007CA00200D006C616D702034206973206F66669D
:0407DA00200D0000EE
:00000001FF
